{
  "_format": "hh-sol-artifact-1",
  "contractName": "Arbitration",
  "sourceName": "contracts/Arbitration.sol",
  "abi": [
    {
      "inputs": [
        {
          "internalType": "address",
          "name": "_grullToken",
          "type": "address"
        }
      ],
      "stateMutability": "nonpayable",
      "type": "constructor"
    },
    {
      "anonymous": false,
      "inputs": [
        {
          "indexed": true,
          "internalType": "uint256",
          "name": "id",
          "type": "uint256"
        },
        {
          "indexed": true,
          "internalType": "address",
          "name": "partyA",
          "type": "address"
        },
        {
          "indexed": true,
          "internalType": "address",
          "name": "partyB",
          "type": "address"
        }
      ],
      "name": "DisputeCreated",
      "type": "event"
    },
    {
      "anonymous": false,
      "inputs": [
        {
          "indexed": true,
          "internalType": "uint256",
          "name": "id",
          "type": "uint256"
        },
        {
          "indexed": false,
          "internalType": "address",
          "name": "winner",
          "type": "address"
        }
      ],
      "name": "DisputeResolved",
      "type": "event"
    },
    {
      "anonymous": false,
      "inputs": [
        {
          "indexed": true,
          "internalType": "address",
          "name": "juror",
          "type": "address"
        }
      ],
      "name": "JurorAdded",
      "type": "event"
    },
    {
      "anonymous": false,
      "inputs": [
        {
          "indexed": true,
          "internalType": "address",
          "name": "juror",
          "type": "address"
        }
      ],
      "name": "JurorSelected",
      "type": "event"
    },
    {
      "anonymous": false,
      "inputs": [
        {
          "indexed": true,
          "internalType": "uint256",
          "name": "disputeId",
          "type": "uint256"
        },
        {
          "indexed": true,
          "internalType": "address",
          "name": "juror",
          "type": "address"
        },
        {
          "indexed": false,
          "internalType": "bool",
          "name": "voteForA",
          "type": "bool"
        }
      ],
      "name": "Voted",
      "type": "event"
    },
    {
      "inputs": [],
      "name": "MAX_STAKE_THRESHOLD",
      "outputs": [
        {
          "internalType": "uint256",
          "name": "",
          "type": "uint256"
        }
      ],
      "stateMutability": "view",
      "type": "function"
    },
    {
      "inputs": [],
      "name": "MINIMUM_VOTE_STAKE",
      "outputs": [
        {
          "internalType": "uint256",
          "name": "",
          "type": "uint256"
        }
      ],
      "stateMutability": "view",
      "type": "function"
    },
    {
      "inputs": [
        {
          "internalType": "uint256",
          "name": "",
          "type": "uint256"
        }
      ],
      "name": "activeJurors",
      "outputs": [
        {
          "internalType": "address",
          "name": "",
          "type": "address"
        }
      ],
      "stateMutability": "view",
      "type": "function"
    },
    {
      "inputs": [
        {
          "internalType": "address",
          "name": "_juror",
          "type": "address"
        },
        {
          "internalType": "uint256",
          "name": "_stakeAmount",
          "type": "uint256"
        }
      ],
      "name": "addJuror",
      "outputs": [],
      "stateMutability": "nonpayable",
      "type": "function"
    },
    {
      "inputs": [
        {
          "internalType": "address",
          "name": "_partyB",
          "type": "address"
        },
        {
          "internalType": "string",
          "name": "_details",
          "type": "string"
        }
      ],
      "name": "createDispute",
      "outputs": [],
      "stateMutability": "nonpayable",
      "type": "function"
    },
    {
      "inputs": [],
      "name": "disputeCount",
      "outputs": [
        {
          "internalType": "uint256",
          "name": "",
          "type": "uint256"
        }
      ],
      "stateMutability": "view",
      "type": "function"
    },
    {
      "inputs": [
        {
          "internalType": "uint256",
          "name": "",
          "type": "uint256"
        }
      ],
      "name": "disputes",
      "outputs": [
        {
          "internalType": "uint256",
          "name": "id",
          "type": "uint256"
        },
        {
          "internalType": "address",
          "name": "partyA",
          "type": "address"
        },
        {
          "internalType": "address",
          "name": "partyB",
          "type": "address"
        },
        {
          "internalType": "string",
          "name": "details",
          "type": "string"
        },
        {
          "internalType": "uint256",
          "name": "votesForA",
          "type": "uint256"
        },
        {
          "internalType": "uint256",
          "name": "votesForB",
          "type": "uint256"
        },
        {
          "internalType": "bool",
          "name": "resolved",
          "type": "bool"
        }
      ],
      "stateMutability": "view",
      "type": "function"
    },
    {
      "inputs": [],
      "name": "grullToken",
      "outputs": [
        {
          "internalType": "contract GRULLToken",
          "name": "",
          "type": "address"
        }
      ],
      "stateMutability": "view",
      "type": "function"
    },
    {
      "inputs": [
        {
          "internalType": "address",
          "name": "",
          "type": "address"
        }
      ],
      "name": "jurorStakes",
      "outputs": [
        {
          "internalType": "uint256",
          "name": "",
          "type": "uint256"
        }
      ],
      "stateMutability": "view",
      "type": "function"
    },
    {
      "inputs": [
        {
          "internalType": "uint256",
          "name": "_disputeId",
          "type": "uint256"
        }
      ],
      "name": "resolveDispute",
      "outputs": [],
      "stateMutability": "nonpayable",
      "type": "function"
    },
    {
      "inputs": [
        {
          "internalType": "uint256",
          "name": "_disputeId",
          "type": "uint256"
        },
        {
          "internalType": "bool",
          "name": "_voteForA",
          "type": "bool"
        }
      ],
      "name": "vote",
      "outputs": [],
      "stateMutability": "nonpayable",
      "type": "function"
    }
  ],
  "bytecode": "0x6080604052348015600f57600080fd5b5060405161146f38038061146f833981016040819052602c916050565b600080546001600160a01b0319166001600160a01b0392909216919091179055607e565b600060208284031215606157600080fd5b81516001600160a01b0381168114607757600080fd5b9392505050565b6113e28061008d6000396000f3fe608060405234801561001057600080fd5b50600436106100a95760003560e01c8063c8f6777911610071578063c8f6777914610134578063c9cf5ddf14610144578063c9d27afe1461016f578063e2da844d14610182578063ead3489a14610195578063f04b67f1146101a857600080fd5b806310f0feee146100ae578063564a565d146100d0578063a28889e1146100f6578063a8a31692146100ff578063c2b7b8681461011f575b600080fd5b6100bd678ac7230489e8000081565b6040519081526020015b60405180910390f35b6100e36100de366004610f42565b6101bb565b6040516100c79796959493929190610f5b565b6100bd60025481565b6100bd61010d366004611007565b60036020526000908152604090205481565b61013261012d366004610f42565b610291565b005b6100bd68056bc75e2d6310000081565b600054610157906001600160a01b031681565b6040516001600160a01b0390911681526020016100c7565b61013261017d36600461103a565b61052c565b610157610190366004610f42565b61080a565b6101326101a3366004611080565b610834565b6101326101b636600461114a565b6108f8565b600160208190526000918252604090912080549181015460028201546003830180546001600160a01b039384169492909316926101f790611174565b80601f016020809104026020016040519081016040528092919081815260200182805461022390611174565b80156102705780601f1061024557610100808354040283529160200191610270565b820191906000526020600020905b81548152906001019060200180831161025357829003601f168201915b50505050600683015460078401546008909401549293909290915060ff1687565b6000818152600160205260409020600881015460ff16156102f45760405162461bcd60e51b8152602060048201526018602482015277111a5cdc1d5d1948185b1c9958591e481c995cdbdb1d995960421b60448201526064015b60405180910390fd5b60088101805460ff1916600117905560078101546006820154116000816103285760028301546001600160a01b0316610337565b60018301546001600160a01b03165b905060005b60048401548110156104e757600084600401828154811061035f5761035f6111a8565b60009182526020808320909101546001600160a01b03168083526005880190915260409091205490915060ff168480156103965750805b806103a85750841580156103a8575080155b15610447576000546001600160a01b031663a9059cbb836103d2678ac7230489e8000060026111d4565b6040516001600160e01b031960e085901b1681526001600160a01b03909216600483015260248201526044016020604051808303816000875af115801561041d573d6000803e3d6000fd5b505050506040513d601f19601f8201168201806040525081019061044191906111eb565b506104dd565b6000546001600160a01b031663a9059cbb3061046c6002678ac7230489e8000061121e565b6040516001600160e01b031960e085901b1681526001600160a01b03909216600483015260248201526044016020604051808303816000875af11580156104b7573d6000803e3d6000fd5b505050506040513d601f19601f820116820180604052508101906104db91906111eb565b505b505060010161033c565b506040516001600160a01b038216815284907ff77ceb5e091d2da041bc760667f9d5fe7a756949eaf29250ad0e60ca6f4c27d99060200160405180910390a250505050565b6000828152600160205260409020600881015460ff161561058a5760405162461bcd60e51b8152602060048201526018602482015277111a5cdc1d5d1948185b1c9958591e481c995cdbdb1d995960421b60448201526064016102eb565b6000546040516370a0823160e01b8152336004820152678ac7230489e80000916001600160a01b0316906370a0823190602401602060405180830381865afa1580156105da573d6000803e3d6000fd5b505050506040513d601f19601f820116820180604052508101906105fe9190611232565b10156106565760405162461bcd60e51b815260206004820152602160248201527f4e6f7420656e6f756768207374616b656420746f6b656e7320746f20766f74656044820152601760f91b60648201526084016102eb565b6106608333610a42565b6106a55760405162461bcd60e51b81526020600482015260166024820152752737ba1039b2b632b1ba32b21030b990353ab937b91760511b60448201526064016102eb565b6106af8333610ab7565b156106f35760405162461bcd60e51b8152602060048201526014602482015273253ab937b91030b63932b0b23c903b37ba32b21760611b60448201526064016102eb565b6000546040516323b872dd60e01b8152336004820152306024820152678ac7230489e8000060448201526001600160a01b03909116906323b872dd906064016020604051808303816000875af1158015610751573d6000803e3d6000fd5b505050506040513d601f19601f8201168201806040525081019061077591906111eb565b5081156107b45760068101805490600061078e8361124b565b90915550503360009081526005820160205260409020805460ff191660011790556107cc565b6007810180549060006107c68361124b565b91905055505b6040518215158152339084907ff2913dbe661ee2acc4a046d8fbcdc792373bda34c41c6086484b5345e5785e5f9060200160405180910390a3505050565b6004818154811061081a57600080fd5b6000918252602090912001546001600160a01b0316905081565b600280549060006108448361124b565b909155505060028054600081815260016020819052604090912091825581018054336001600160a01b03199182161790915591810180549092166001600160a01b038516179091556003810161089a83826112b3565b506108a3610b1e565b80516108b9916004840191602090910190610ec8565b506002546040516001600160a01b0385169133917fa98740350a04e10bd52f7846736922efc8c45cf66834c194a975d83416861f2290600090a4505050565b6000546040516370a0823160e01b815233600482015282916001600160a01b0316906370a0823190602401602060405180830381865afa158015610940573d6000803e3d6000fd5b505050506040513d601f19601f820116820180604052508101906109649190611232565b10156109be5760405162461bcd60e51b815260206004820152602360248201527f496e73756666696369656e74204752554c4c20746f6b656e7320746f2073746160448201526235b29760e91b60648201526084016102eb565b6001600160a01b038216600081815260036020526040808220849055600480546001810182559083527f8a35acfbc15ff81a39ae7d344fd709f28e8600b4aa8c65c6b64bfe7fe36bd19b0180546001600160a01b03191684179055517ff8178f8760667f25bd537d505a67e00d13e86618daf92afc41e42570cb7bcbca9190a25050565b6000828152600160205260408120815b6004820154811015610aaa57836001600160a01b0316826004018281548110610a7d57610a7d6111a8565b6000918252602090912001546001600160a01b031603610aa257600192505050610ab1565b600101610a52565b5060009150505b92915050565b60008281526001602090815260408083206001600160a01b03851684526005810190925282205460ff1680610b1657506001600160a01b038316600090815260058201602052604090205460ff16158015610b16575060008160070154115b949350505050565b60045460609060031115610b745760405162461bcd60e51b815260206004820152601860248201527f4e6f7420656e6f75676820616374697665206a75726f7273000000000000000060448201526064016102eb565b600454600090610b869060039061121e565b905060008167ffffffffffffffff811115610ba357610ba361106a565b604051908082528060200260200182016040528015610bcc578160200160208202803683370190505b50905060005b82811015610c6b57610be2610c72565b828281518110610bf457610bf46111a8565b60200260200101906001600160a01b031690816001600160a01b031681525050818181518110610c2657610c266111a8565b60200260200101516001600160a01b03167f9aec849ddb26156a679aea8e5b56e4d9680d4cb4193ef7672068415836aedd5360405160405180910390a2600101610bd2565b5092915050565b6004546000908190819067ffffffffffffffff811115610c9457610c9461106a565b604051908082528060200260200182016040528015610cbd578160200160208202803683370190505b50905060005b600454811015610d645760006003600060048481548110610ce657610ce66111a8565b60009182526020808320909101546001600160a01b031683528201929092526040019020549050610d1681610e69565b838381518110610d2857610d286111a8565b602002602001018181525050828281518110610d4657610d466111a8565b602002602001015184610d599190611372565b935050600101610cc3565b506000824244604051602001610d84929190918252602082015260400190565b6040516020818303038152906040528051906020012060001c610da79190611385565b905060005b600454811015610e3757828181518110610dc857610dc86111a8565b6020026020010151821015610e085760048181548110610dea57610dea6111a8565b6000918252602090912001546001600160a01b031695945050505050565b828181518110610e1a57610e1a6111a8565b602002602001015182610e2d9190611399565b9150600101610dac565b506004600081548110610e4c57610e4c6111a8565b6000918252602090912001546001600160a01b0316949350505050565b6000610ab1826000806002610e7f846001611372565b610e89919061121e565b90508291505b81811015610ec257905080600281610ea7818661121e565b610eb19190611372565b610ebb919061121e565b9050610e8f565b50919050565b828054828255906000526020600020908101928215610f1d579160200282015b82811115610f1d57825182546001600160a01b0319166001600160a01b03909116178255602090920191600190910190610ee8565b50610f29929150610f2d565b5090565b5b80821115610f295760008155600101610f2e565b600060208284031215610f5457600080fd5b5035919050565b8781526001600160a01b0387811660208301528616604082015260e0606082018190528551908201819052600090815b81811015610fa9576020818901810151610100868401015201610f8b565b5060006101008285010152610100601f19601f8301168401019150508460808301528360a0830152610fdf60c083018415159052565b98975050505050505050565b80356001600160a01b038116811461100257600080fd5b919050565b60006020828403121561101957600080fd5b61102282610feb565b9392505050565b801515811461103757600080fd5b50565b6000806040838503121561104d57600080fd5b82359150602083013561105f81611029565b809150509250929050565b634e487b7160e01b600052604160045260246000fd5b6000806040838503121561109357600080fd5b61109c83610feb565b9150602083013567ffffffffffffffff8111156110b857600080fd5b8301601f810185136110c957600080fd5b803567ffffffffffffffff8111156110e3576110e361106a565b604051601f8201601f19908116603f0116810167ffffffffffffffff811182821017156111125761111261106a565b60405281815282820160200187101561112a57600080fd5b816020840160208301376000602083830101528093505050509250929050565b6000806040838503121561115d57600080fd5b61116683610feb565b946020939093013593505050565b600181811c9082168061118857607f821691505b602082108103610ec257634e487b7160e01b600052602260045260246000fd5b634e487b7160e01b600052603260045260246000fd5b634e487b7160e01b600052601160045260246000fd5b8082028115828204841417610ab157610ab16111be565b6000602082840312156111fd57600080fd5b815161102281611029565b634e487b7160e01b600052601260045260246000fd5b60008261122d5761122d611208565b500490565b60006020828403121561124457600080fd5b5051919050565b60006001820161125d5761125d6111be565b5060010190565b601f8211156112ae57806000526020600020601f840160051c8101602085101561128b5750805b601f840160051c820191505b818110156112ab5760008155600101611297565b50505b505050565b815167ffffffffffffffff8111156112cd576112cd61106a565b6112e1816112db8454611174565b84611264565b6020601f82116001811461131557600083156112fd5750848201515b600019600385901b1c1916600184901b1784556112ab565b600084815260208120601f198516915b828110156113455787850151825560209485019460019092019101611325565b50848210156113635786840151600019600387901b60f8161c191681555b50505050600190811b01905550565b80820180821115610ab157610ab16111be565b60008261139457611394611208565b500690565b81810381811115610ab157610ab16111be56fea264697066735822122053cae6339efb1ea5e51630b671e5a0056c0ed3ef66108900ba9b60b5182ebd9c64736f6c634300081b0033",
  "linkReferences": {},
  "deployedLinkReferences": {}
}